{
  "_format": "hh-sol-artifact-1",
  "contractName": "AIGenNFT",
  "sourceName": "contracts/AIGenNFT.sol",
  "abi": [
    {
      "inputs": [
        {
          "internalType": "uint96",
          "name": "_royaltyFee",
          "type": "uint96"
        },
        {
          "internalType": "address",
          "name": "initialOwner",
          "type": "address"
        }
      ],
      "stateMutability": "nonpayable",
      "type": "constructor"
    },
    {
      "inputs": [
        {
          "internalType": "address",
          "name": "sender",
          "type": "address"
        },
        {
          "internalType": "uint256",
          "name": "tokenId",
          "type": "uint256"
        },
        {
          "internalType": "address",
          "name": "owner",
          "type": "address"
        }
      ],
      "name": "ERC721IncorrectOwner",
      "type": "error"
    },
    {
      "inputs": [
        {
          "internalType": "address",
          "name": "operator",
          "type": "address"
        },
        {
          "internalType": "uint256",
          "name": "tokenId",
          "type": "uint256"
        }
      ],
      "name": "ERC721InsufficientApproval",
      "type": "error"
    },
    {
      "inputs": [
        {
          "internalType": "address",
          "name": "approver",
          "type": "address"
        }
      ],
      "name": "ERC721InvalidApprover",
      "type": "error"
    },
    {
      "inputs": [
        {
          "internalType": "address",
          "name": "operator",
          "type": "address"
        }
      ],
      "name": "ERC721InvalidOperator",
      "type": "error"
    },
    {
      "inputs": [
        {
          "internalType": "address",
          "name": "owner",
          "type": "address"
        }
      ],
      "name": "ERC721InvalidOwner",
      "type": "error"
    },
    {
      "inputs": [
        {
          "internalType": "address",
          "name": "receiver",
          "type": "address"
        }
      ],
      "name": "ERC721InvalidReceiver",
      "type": "error"
    },
    {
      "inputs": [
        {
          "internalType": "address",
          "name": "sender",
          "type": "address"
        }
      ],
      "name": "ERC721InvalidSender",
      "type": "error"
    },
    {
      "inputs": [
        {
          "internalType": "uint256",
          "name": "tokenId",
          "type": "uint256"
        }
      ],
      "name": "ERC721NonexistentToken",
      "type": "error"
    },
    {
      "inputs": [
        {
          "internalType": "address",
          "name": "owner",
          "type": "address"
        }
      ],
      "name": "OwnableInvalidOwner",
      "type": "error"
    },
    {
      "inputs": [
        {
          "internalType": "address",
          "name": "account",
          "type": "address"
        }
      ],
      "name": "OwnableUnauthorizedAccount",
      "type": "error"
    },
    {
      "anonymous": false,
      "inputs": [
        {
          "indexed": true,
          "internalType": "address",
          "name": "owner",
          "type": "address"
        },
        {
          "indexed": true,
          "internalType": "address",
          "name": "approved",
          "type": "address"
        },
        {
          "indexed": true,
          "internalType": "uint256",
          "name": "tokenId",
          "type": "uint256"
        }
      ],
      "name": "Approval",
      "type": "event"
    },
    {
      "anonymous": false,
      "inputs": [
        {
          "indexed": true,
          "internalType": "address",
          "name": "owner",
          "type": "address"
        },
        {
          "indexed": true,
          "internalType": "address",
          "name": "operator",
          "type": "address"
        },
        {
          "indexed": false,
          "internalType": "bool",
          "name": "approved",
          "type": "bool"
        }
      ],
      "name": "ApprovalForAll",
      "type": "event"
    },
    {
      "anonymous": false,
      "inputs": [
        {
          "indexed": false,
          "internalType": "uint256",
          "name": "_fromTokenId",
          "type": "uint256"
        },
        {
          "indexed": false,
          "internalType": "uint256",
          "name": "_toTokenId",
          "type": "uint256"
        }
      ],
      "name": "BatchMetadataUpdate",
      "type": "event"
    },
    {
      "anonymous": false,
      "inputs": [
        {
          "indexed": false,
          "internalType": "uint256",
          "name": "_tokenId",
          "type": "uint256"
        }
      ],
      "name": "MetadataUpdate",
      "type": "event"
    },
    {
      "anonymous": false,
      "inputs": [
        {
          "indexed": false,
          "internalType": "uint256",
          "name": "tokenId",
          "type": "uint256"
        },
        {
          "indexed": false,
          "internalType": "address",
          "name": "creator",
          "type": "address"
        },
        {
          "indexed": false,
          "internalType": "string",
          "name": "tokenURI",
          "type": "string"
        }
      ],
      "name": "Minted",
      "type": "event"
    },
    {
      "anonymous": false,
      "inputs": [
        {
          "indexed": true,
          "internalType": "address",
          "name": "previousOwner",
          "type": "address"
        },
        {
          "indexed": true,
          "internalType": "address",
          "name": "newOwner",
          "type": "address"
        }
      ],
      "name": "OwnershipTransferred",
      "type": "event"
    },
    {
      "anonymous": false,
      "inputs": [
        {
          "indexed": true,
          "internalType": "address",
          "name": "from",
          "type": "address"
        },
        {
          "indexed": true,
          "internalType": "address",
          "name": "to",
          "type": "address"
        },
        {
          "indexed": true,
          "internalType": "uint256",
          "name": "tokenId",
          "type": "uint256"
        }
      ],
      "name": "Transfer",
      "type": "event"
    },
    {
      "inputs": [
        {
          "internalType": "address",
          "name": "to",
          "type": "address"
        },
        {
          "internalType": "uint256",
          "name": "tokenId",
          "type": "uint256"
        }
      ],
      "name": "approve",
      "outputs": [],
      "stateMutability": "nonpayable",
      "type": "function"
    },
    {
      "inputs": [
        {
          "internalType": "address",
          "name": "owner",
          "type": "address"
        }
      ],
      "name": "balanceOf",
      "outputs": [
        {
          "internalType": "uint256",
          "name": "",
          "type": "uint256"
        }
      ],
      "stateMutability": "view",
      "type": "function"
    },
    {
      "inputs": [
        {
          "internalType": "uint256",
          "name": "",
          "type": "uint256"
        }
      ],
      "name": "creators",
      "outputs": [
        {
          "internalType": "address",
          "name": "",
          "type": "address"
        }
      ],
      "stateMutability": "view",
      "type": "function"
    },
    {
      "inputs": [
        {
          "internalType": "uint256",
          "name": "tokenId",
          "type": "uint256"
        }
      ],
      "name": "getApproved",
      "outputs": [
        {
          "internalType": "address",
          "name": "",
          "type": "address"
        }
      ],
      "stateMutability": "view",
      "type": "function"
    },
    {
      "inputs": [
        {
          "internalType": "address",
          "name": "owner",
          "type": "address"
        },
        {
          "internalType": "address",
          "name": "operator",
          "type": "address"
        }
      ],
      "name": "isApprovedForAll",
      "outputs": [
        {
          "internalType": "bool",
          "name": "",
          "type": "bool"
        }
      ],
      "stateMutability": "view",
      "type": "function"
    },
    {
      "inputs": [
        {
          "internalType": "string",
          "name": "_tokenURI",
          "type": "string"
        }
      ],
      "name": "mint",
      "outputs": [
        {
          "internalType": "uint256",
          "name": "",
          "type": "uint256"
        }
      ],
      "stateMutability": "nonpayable",
      "type": "function"
    },
    {
      "inputs": [],
      "name": "name",
      "outputs": [
        {
          "internalType": "string",
          "name": "",
          "type": "string"
        }
      ],
      "stateMutability": "view",
      "type": "function"
    },
    {
      "inputs": [],
      "name": "nextTokenId",
      "outputs": [
        {
          "internalType": "uint256",
          "name": "",
          "type": "uint256"
        }
      ],
      "stateMutability": "view",
      "type": "function"
    },
    {
      "inputs": [],
      "name": "owner",
      "outputs": [
        {
          "internalType": "address",
          "name": "",
          "type": "address"
        }
      ],
      "stateMutability": "view",
      "type": "function"
    },
    {
      "inputs": [
        {
          "internalType": "uint256",
          "name": "tokenId",
          "type": "uint256"
        }
      ],
      "name": "ownerOf",
      "outputs": [
        {
          "internalType": "address",
          "name": "",
          "type": "address"
        }
      ],
      "stateMutability": "view",
      "type": "function"
    },
    {
      "inputs": [],
      "name": "renounceOwnership",
      "outputs": [],
      "stateMutability": "nonpayable",
      "type": "function"
    },
    {
      "inputs": [
        {
          "internalType": "uint256",
          "name": "tokenId",
          "type": "uint256"
        },
        {
          "internalType": "address",
          "name": "buyer",
          "type": "address"
        }
      ],
      "name": "resale",
      "outputs": [],
      "stateMutability": "payable",
      "type": "function"
    },
    {
      "inputs": [],
      "name": "royaltyFee",
      "outputs": [
        {
          "internalType": "uint96",
          "name": "",
          "type": "uint96"
        }
      ],
      "stateMutability": "view",
      "type": "function"
    },
    {
      "inputs": [
        {
          "internalType": "address",
          "name": "from",
          "type": "address"
        },
        {
          "internalType": "address",
          "name": "to",
          "type": "address"
        },
        {
          "internalType": "uint256",
          "name": "tokenId",
          "type": "uint256"
        }
      ],
      "name": "safeTransferFrom",
      "outputs": [],
      "stateMutability": "nonpayable",
      "type": "function"
    },
    {
      "inputs": [
        {
          "internalType": "address",
          "name": "from",
          "type": "address"
        },
        {
          "internalType": "address",
          "name": "to",
          "type": "address"
        },
        {
          "internalType": "uint256",
          "name": "tokenId",
          "type": "uint256"
        },
        {
          "internalType": "bytes",
          "name": "data",
          "type": "bytes"
        }
      ],
      "name": "safeTransferFrom",
      "outputs": [],
      "stateMutability": "nonpayable",
      "type": "function"
    },
    {
      "inputs": [
        {
          "internalType": "address",
          "name": "operator",
          "type": "address"
        },
        {
          "internalType": "bool",
          "name": "approved",
          "type": "bool"
        }
      ],
      "name": "setApprovalForAll",
      "outputs": [],
      "stateMutability": "nonpayable",
      "type": "function"
    },
    {
      "inputs": [
        {
          "internalType": "uint96",
          "name": "_fee",
          "type": "uint96"
        }
      ],
      "name": "setRoyaltyFee",
      "outputs": [],
      "stateMutability": "nonpayable",
      "type": "function"
    },
    {
      "inputs": [
        {
          "internalType": "bytes4",
          "name": "interfaceId",
          "type": "bytes4"
        }
      ],
      "name": "supportsInterface",
      "outputs": [
        {
          "internalType": "bool",
          "name": "",
          "type": "bool"
        }
      ],
      "stateMutability": "view",
      "type": "function"
    },
    {
      "inputs": [],
      "name": "symbol",
      "outputs": [
        {
          "internalType": "string",
          "name": "",
          "type": "string"
        }
      ],
      "stateMutability": "view",
      "type": "function"
    },
    {
      "inputs": [
        {
          "internalType": "uint256",
          "name": "tokenId",
          "type": "uint256"
        }
      ],
      "name": "tokenURI",
      "outputs": [
        {
          "internalType": "string",
          "name": "",
          "type": "string"
        }
      ],
      "stateMutability": "view",
      "type": "function"
    },
    {
      "inputs": [
        {
          "internalType": "address",
          "name": "from",
          "type": "address"
        },
        {
          "internalType": "address",
          "name": "to",
          "type": "address"
        },
        {
          "internalType": "uint256",
          "name": "tokenId",
          "type": "uint256"
        }
      ],
      "name": "transferFrom",
      "outputs": [],
      "stateMutability": "nonpayable",
      "type": "function"
    },
    {
      "inputs": [
        {
          "internalType": "address",
          "name": "newOwner",
          "type": "address"
        }
      ],
      "name": "transferOwnership",
      "outputs": [],
      "stateMutability": "nonpayable",
      "type": "function"
    }
  ],
  "bytecode": "0x60806040523480156200001157600080fd5b506040516200371438038062003714833981810160405281019062000037919062000303565b806040518060400160405280600c81526020017f414920496d616765204e465400000000000000000000000000000000000000008152506040518060400160405280600581526020017f41494e46540000000000000000000000000000000000000000000000000000008152508160009081620000b59190620005c4565b508060019081620000c79190620005c4565b505050600073ffffffffffffffffffffffffffffffffffffffff168173ffffffffffffffffffffffffffffffffffffffff16036200013f5760006040517f1e4fbdf7000000000000000000000000000000000000000000000000000000008152600401620001369190620006bc565b60405180910390fd5b62000150816200018a60201b60201c565b5081600a60006101000a8154816bffffffffffffffffffffffff02191690836bffffffffffffffffffffffff1602179055505050620006d9565b6000600760009054906101000a900473ffffffffffffffffffffffffffffffffffffffff16905081600760006101000a81548173ffffffffffffffffffffffffffffffffffffffff021916908373ffffffffffffffffffffffffffffffffffffffff1602179055508173ffffffffffffffffffffffffffffffffffffffff168173ffffffffffffffffffffffffffffffffffffffff167f8be0079c531659141344cd1fd0a4f28419497f9722a3daafe3b4186f6b6457e060405160405180910390a35050565b600080fd5b60006bffffffffffffffffffffffff82169050919050565b620002788162000255565b81146200028457600080fd5b50565b60008151905062000298816200026d565b92915050565b600073ffffffffffffffffffffffffffffffffffffffff82169050919050565b6000620002cb826200029e565b9050919050565b620002dd81620002be565b8114620002e957600080fd5b50565b600081519050620002fd81620002d2565b92915050565b600080604083850312156200031d576200031c62000250565b5b60006200032d8582860162000287565b92505060206200034085828601620002ec565b9150509250929050565b600081519050919050565b7f4e487b7100000000000000000000000000000000000000000000000000000000600052604160045260246000fd5b7f4e487b7100000000000000000000000000000000000000000000000000000000600052602260045260246000fd5b60006002820490506001821680620003cc57607f821691505b602082108103620003e257620003e162000384565b5b50919050565b60008190508160005260206000209050919050565b60006020601f8301049050919050565b600082821b905092915050565b6000600883026200044c7fffffffffffffffffffffffffffffffffffffffffffffffffffffffffffffffff826200040d565b6200045886836200040d565b95508019841693508086168417925050509392505050565b6000819050919050565b6000819050919050565b6000620004a56200049f620004998462000470565b6200047a565b62000470565b9050919050565b6000819050919050565b620004c18362000484565b620004d9620004d082620004ac565b8484546200041a565b825550505050565b600090565b620004f0620004e1565b620004fd818484620004b6565b505050565b5b81811015620005255762000519600082620004e6565b60018101905062000503565b5050565b601f82111562000574576200053e81620003e8565b6200054984620003fd565b8101602085101562000559578190505b620005716200056885620003fd565b83018262000502565b50505b505050565b600082821c905092915050565b6000620005996000198460080262000579565b1980831691505092915050565b6000620005b4838362000586565b9150826002028217905092915050565b620005cf826200034a565b67ffffffffffffffff811115620005eb57620005ea62000355565b5b620005f78254620003b3565b6200060482828562000529565b600060209050601f8311600181146200063c576000841562000627578287015190505b620006338582620005a6565b865550620006a3565b601f1984166200064c86620003e8565b60005b8281101562000676578489015182556001820191506020850194506020810190506200064f565b8683101562000696578489015162000692601f89168262000586565b8355505b6001600288020188555050505b505050505050565b620006b681620002be565b82525050565b6000602082019050620006d36000830184620006ab565b92915050565b61302b80620006e96000396000f3fe6080604052600436106101355760003560e01c806384030e8f116100ab578063b8997a971161006f578063b8997a9714610403578063c87b56dd1461042e578063cd53d08e1461046b578063d85d3d27146104a8578063e985e9c5146104e5578063f2fde38b1461052257610135565b806384030e8f1461033f5780638da5cb5b1461035b57806395d89b4114610386578063a22cb465146103b1578063b88d4fde146103da57610135565b806331faafb4116100fd57806331faafb41461023157806342842e0e1461025a5780636352211e1461028357806370a08231146102c0578063715018a6146102fd57806375794a3c1461031457610135565b806301ffc9a71461013a57806306fdde0314610177578063081812fc146101a2578063095ea7b3146101df57806323b872dd14610208575b600080fd5b34801561014657600080fd5b50610161600480360381019061015c9190612192565b61054b565b60405161016e91906121da565b60405180910390f35b34801561018357600080fd5b5061018c6105ac565b6040516101999190612285565b60405180910390f35b3480156101ae57600080fd5b506101c960048036038101906101c491906122dd565b61063e565b6040516101d6919061234b565b60405180910390f35b3480156101eb57600080fd5b5061020660048036038101906102019190612392565b61065a565b005b34801561021457600080fd5b5061022f600480360381019061022a91906123d2565b610670565b005b34801561023d57600080fd5b5061025860048036038101906102539190612469565b610772565b005b34801561026657600080fd5b50610281600480360381019061027c91906123d2565b6107ae565b005b34801561028f57600080fd5b506102aa60048036038101906102a591906122dd565b6107ce565b6040516102b7919061234b565b60405180910390f35b3480156102cc57600080fd5b506102e760048036038101906102e29190612496565b6107e0565b6040516102f491906124d2565b60405180910390f35b34801561030957600080fd5b5061031261089a565b005b34801561032057600080fd5b506103296108ae565b60405161033691906124d2565b60405180910390f35b610359600480360381019061035491906124ed565b6108b4565b005b34801561036757600080fd5b50610370610b09565b60405161037d919061234b565b60405180910390f35b34801561039257600080fd5b5061039b610b33565b6040516103a89190612285565b60405180910390f35b3480156103bd57600080fd5b506103d860048036038101906103d39190612559565b610bc5565b005b3480156103e657600080fd5b5061040160048036038101906103fc91906126ce565b610bdb565b005b34801561040f57600080fd5b50610418610c00565b6040516104259190612760565b60405180910390f35b34801561043a57600080fd5b50610455600480360381019061045091906122dd565b610c1e565b6040516104629190612285565b60405180910390f35b34801561047757600080fd5b50610492600480360381019061048d91906122dd565b610d31565b60405161049f919061234b565b60405180910390f35b3480156104b457600080fd5b506104cf60048036038101906104ca919061281c565b610d64565b6040516104dc91906124d2565b60405180910390f35b3480156104f157600080fd5b5061050c60048036038101906105079190612865565b610e2e565b60405161051991906121da565b60405180910390f35b34801561052e57600080fd5b5061054960048036038101906105449190612496565b610ec2565b005b6000634906490660e01b7bffffffffffffffffffffffffffffffffffffffffffffffffffffffff1916827bffffffffffffffffffffffffffffffffffffffffffffffffffffffff191614806105a557506105a482610f48565b5b9050919050565b6060600080546105bb906128d4565b80601f01602080910402602001604051908101604052809291908181526020018280546105e7906128d4565b80156106345780601f1061060957610100808354040283529160200191610634565b820191906000526020600020905b81548152906001019060200180831161061757829003601f168201915b5050505050905090565b60006106498261102a565b50610653826110b2565b9050919050565b61066c82826106676110ef565b6110f7565b5050565b600073ffffffffffffffffffffffffffffffffffffffff168273ffffffffffffffffffffffffffffffffffffffff16036106e25760006040517f64a0ae920000000000000000000000000000000000000000000000000000000081526004016106d9919061234b565b60405180910390fd5b60006106f683836106f16110ef565b611109565b90508373ffffffffffffffffffffffffffffffffffffffff168173ffffffffffffffffffffffffffffffffffffffff161461076c578382826040517f64283d7b00000000000000000000000000000000000000000000000000000000815260040161076393929190612905565b60405180910390fd5b50505050565b61077a611323565b80600a60006101000a8154816bffffffffffffffffffffffff02191690836bffffffffffffffffffffffff16021790555050565b6107c983838360405180602001604052806000815250610bdb565b505050565b60006107d98261102a565b9050919050565b60008073ffffffffffffffffffffffffffffffffffffffff168273ffffffffffffffffffffffffffffffffffffffff16036108535760006040517f89c62b6400000000000000000000000000000000000000000000000000000000815260040161084a919061234b565b60405180910390fd5b600360008373ffffffffffffffffffffffffffffffffffffffff1673ffffffffffffffffffffffffffffffffffffffff168152602001908152602001600020549050919050565b6108a2611323565b6108ac60006113aa565b565b60085481565b60006108bf836107ce565b90503373ffffffffffffffffffffffffffffffffffffffff168173ffffffffffffffffffffffffffffffffffffffff161461092f576040517f08c379a000000000000000000000000000000000000000000000000000000000815260040161092690612988565b60405180910390fd5b600073ffffffffffffffffffffffffffffffffffffffff168273ffffffffffffffffffffffffffffffffffffffff160361099e576040517f08c379a0000000000000000000000000000000000000000000000000000000008152600401610995906129f4565b60405180910390fd5b600034116109e1576040517f08c379a00000000000000000000000000000000000000000000000000000000081526004016109d890612a60565b60405180910390fd5b6000612710600a60009054906101000a90046bffffffffffffffffffffffff166bffffffffffffffffffffffff1634610a1a9190612aaf565b610a249190612b20565b905060008134610a349190612b51565b90506009600086815260200190815260200160002060009054906101000a900473ffffffffffffffffffffffffffffffffffffffff1673ffffffffffffffffffffffffffffffffffffffff166108fc839081150290604051600060405180830381858888f19350505050158015610aaf573d6000803e3d6000fd5b508273ffffffffffffffffffffffffffffffffffffffff166108fc829081150290604051600060405180830381858888f19350505050158015610af6573d6000803e3d6000fd5b50610b02838587611470565b5050505050565b6000600760009054906101000a900473ffffffffffffffffffffffffffffffffffffffff16905090565b606060018054610b42906128d4565b80601f0160208091040260200160405190810160405280929190818152602001828054610b6e906128d4565b8015610bbb5780601f10610b9057610100808354040283529160200191610bbb565b820191906000526020600020905b815481529060010190602001808311610b9e57829003601f168201915b5050505050905090565b610bd7610bd06110ef565b83836115dd565b5050565b610be6848484610670565b610bfa610bf16110ef565b8585858561174c565b50505050565b600a60009054906101000a90046bffffffffffffffffffffffff1681565b6060610c298261102a565b506000600660008481526020019081526020016000208054610c4a906128d4565b80601f0160208091040260200160405190810160405280929190818152602001828054610c76906128d4565b8015610cc35780601f10610c9857610100808354040283529160200191610cc3565b820191906000526020600020905b815481529060010190602001808311610ca657829003601f168201915b505050505090506000610cd46118fd565b90506000815103610ce9578192505050610d2c565b600082511115610d1e578082604051602001610d06929190612bc1565b60405160208183030381529060405292505050610d2c565b610d2784611914565b925050505b919050565b60096020528060005260406000206000915054906101000a900473ffffffffffffffffffffffffffffffffffffffff1681565b6000806008549050610d76338261197d565b610d80818461199b565b336009600083815260200190815260200160002060006101000a81548173ffffffffffffffffffffffffffffffffffffffff021916908373ffffffffffffffffffffffffffffffffffffffff16021790555060086000815480929190610de590612be5565b91905055507f3b8a974a6971dbe70c8718ec80406b2790d2aa5477b6a5bed3d94fa19e06d60d813385604051610e1d93929190612c2d565b60405180910390a180915050919050565b6000600560008473ffffffffffffffffffffffffffffffffffffffff1673ffffffffffffffffffffffffffffffffffffffff16815260200190815260200160002060008373ffffffffffffffffffffffffffffffffffffffff1673ffffffffffffffffffffffffffffffffffffffff16815260200190815260200160002060009054906101000a900460ff16905092915050565b610eca611323565b600073ffffffffffffffffffffffffffffffffffffffff168173ffffffffffffffffffffffffffffffffffffffff1603610f3c5760006040517f1e4fbdf7000000000000000000000000000000000000000000000000000000008152600401610f33919061234b565b60405180910390fd5b610f45816113aa565b50565b60007f80ac58cd000000000000000000000000000000000000000000000000000000007bffffffffffffffffffffffffffffffffffffffffffffffffffffffff1916827bffffffffffffffffffffffffffffffffffffffffffffffffffffffff1916148061101357507f5b5e139f000000000000000000000000000000000000000000000000000000007bffffffffffffffffffffffffffffffffffffffffffffffffffffffff1916827bffffffffffffffffffffffffffffffffffffffffffffffffffffffff1916145b806110235750611022826119f7565b5b9050919050565b60008061103683611a61565b9050600073ffffffffffffffffffffffffffffffffffffffff168173ffffffffffffffffffffffffffffffffffffffff16036110a957826040517f7e2732890000000000000000000000000000000000000000000000000000000081526004016110a091906124d2565b60405180910390fd5b80915050919050565b60006004600083815260200190815260200160002060009054906101000a900473ffffffffffffffffffffffffffffffffffffffff169050919050565b600033905090565b6111048383836001611a9e565b505050565b60008061111584611a61565b9050600073ffffffffffffffffffffffffffffffffffffffff168373ffffffffffffffffffffffffffffffffffffffff161461115757611156818486611c63565b5b600073ffffffffffffffffffffffffffffffffffffffff168173ffffffffffffffffffffffffffffffffffffffff16146111e857611199600085600080611a9e565b6001600360008373ffffffffffffffffffffffffffffffffffffffff1673ffffffffffffffffffffffffffffffffffffffff168152602001908152602001600020600082825403925050819055505b600073ffffffffffffffffffffffffffffffffffffffff168573ffffffffffffffffffffffffffffffffffffffff161461126b576001600360008773ffffffffffffffffffffffffffffffffffffffff1673ffffffffffffffffffffffffffffffffffffffff168152602001908152602001600020600082825401925050819055505b846002600086815260200190815260200160002060006101000a81548173ffffffffffffffffffffffffffffffffffffffff021916908373ffffffffffffffffffffffffffffffffffffffff160217905550838573ffffffffffffffffffffffffffffffffffffffff168273ffffffffffffffffffffffffffffffffffffffff167fddf252ad1be2c89b69c2b068fc378daa952ba7f163c4a11628f55a4df523b3ef60405160405180910390a4809150509392505050565b61132b6110ef565b73ffffffffffffffffffffffffffffffffffffffff16611349610b09565b73ffffffffffffffffffffffffffffffffffffffff16146113a85761136c6110ef565b6040517f118cdaa700000000000000000000000000000000000000000000000000000000815260040161139f919061234b565b60405180910390fd5b565b6000600760009054906101000a900473ffffffffffffffffffffffffffffffffffffffff16905081600760006101000a81548173ffffffffffffffffffffffffffffffffffffffff021916908373ffffffffffffffffffffffffffffffffffffffff1602179055508173ffffffffffffffffffffffffffffffffffffffff168173ffffffffffffffffffffffffffffffffffffffff167f8be0079c531659141344cd1fd0a4f28419497f9722a3daafe3b4186f6b6457e060405160405180910390a35050565b600073ffffffffffffffffffffffffffffffffffffffff168273ffffffffffffffffffffffffffffffffffffffff16036114e25760006040517f64a0ae920000000000000000000000000000000000000000000000000000000081526004016114d9919061234b565b60405180910390fd5b60006114f083836000611109565b9050600073ffffffffffffffffffffffffffffffffffffffff168173ffffffffffffffffffffffffffffffffffffffff160361156357816040517f7e27328900000000000000000000000000000000000000000000000000000000815260040161155a91906124d2565b60405180910390fd5b8373ffffffffffffffffffffffffffffffffffffffff168173ffffffffffffffffffffffffffffffffffffffff16146115d7578382826040517f64283d7b0000000000000000000000000000000000000000000000000000000081526004016115ce93929190612905565b60405180910390fd5b50505050565b600073ffffffffffffffffffffffffffffffffffffffff168273ffffffffffffffffffffffffffffffffffffffff160361164e57816040517f5b08ba18000000000000000000000000000000000000000000000000000000008152600401611645919061234b565b60405180910390fd5b80600560008573ffffffffffffffffffffffffffffffffffffffff1673ffffffffffffffffffffffffffffffffffffffff16815260200190815260200160002060008473ffffffffffffffffffffffffffffffffffffffff1673ffffffffffffffffffffffffffffffffffffffff16815260200190815260200160002060006101000a81548160ff0219169083151502179055508173ffffffffffffffffffffffffffffffffffffffff168373ffffffffffffffffffffffffffffffffffffffff167f17307eab39ab6107e8899845ad3d59bd9653f200f220920489ca2b5937696c318360405161173f91906121da565b60405180910390a3505050565b60008373ffffffffffffffffffffffffffffffffffffffff163b11156118f6578273ffffffffffffffffffffffffffffffffffffffff1663150b7a02868685856040518563ffffffff1660e01b81526004016117ab9493929190612cc0565b6020604051808303816000875af19250505080156117e757506040513d601f19601f820116820180604052508101906117e49190612d21565b60015b61186b573d8060008114611817576040519150601f19603f3d011682016040523d82523d6000602084013e61181c565b606091505b50600081510361186357836040517f64a0ae9200000000000000000000000000000000000000000000000000000000815260040161185a919061234b565b60405180910390fd5b805181602001fd5b63150b7a0260e01b7bffffffffffffffffffffffffffffffffffffffffffffffffffffffff1916817bffffffffffffffffffffffffffffffffffffffffffffffffffffffff1916146118f457836040517f64a0ae920000000000000000000000000000000000000000000000000000000081526004016118eb919061234b565b60405180910390fd5b505b5050505050565b606060405180602001604052806000815250905090565b606061191f8261102a565b50600061192a6118fd565b9050600081511161194a5760405180602001604052806000815250611975565b8061195484611d27565b604051602001611965929190612bc1565b6040516020818303038152906040525b915050919050565b611997828260405180602001604052806000815250611df5565b5050565b806006600084815260200190815260200160002090816119bb9190612efa565b507ff8e1a15aba9398e019f0b49df1a4fde98ee17ae345cb5f6b5e2c27f5033e8ce7826040516119eb91906124d2565b60405180910390a15050565b60007f01ffc9a7000000000000000000000000000000000000000000000000000000007bffffffffffffffffffffffffffffffffffffffffffffffffffffffff1916827bffffffffffffffffffffffffffffffffffffffffffffffffffffffff1916149050919050565b60006002600083815260200190815260200160002060009054906101000a900473ffffffffffffffffffffffffffffffffffffffff169050919050565b8080611ad75750600073ffffffffffffffffffffffffffffffffffffffff168273ffffffffffffffffffffffffffffffffffffffff1614155b15611c0b576000611ae78461102a565b9050600073ffffffffffffffffffffffffffffffffffffffff168373ffffffffffffffffffffffffffffffffffffffff1614158015611b5257508273ffffffffffffffffffffffffffffffffffffffff168173ffffffffffffffffffffffffffffffffffffffff1614155b8015611b655750611b638184610e2e565b155b15611ba757826040517fa9fbf51f000000000000000000000000000000000000000000000000000000008152600401611b9e919061234b565b60405180910390fd5b8115611c0957838573ffffffffffffffffffffffffffffffffffffffff168273ffffffffffffffffffffffffffffffffffffffff167f8c5be1e5ebec7d5bd14f71427d1e84f3dd0314c0f7b2291e5b200ac8c7c3b92560405160405180910390a45b505b836004600085815260200190815260200160002060006101000a81548173ffffffffffffffffffffffffffffffffffffffff021916908373ffffffffffffffffffffffffffffffffffffffff16021790555050505050565b611c6e838383611e19565b611d2257600073ffffffffffffffffffffffffffffffffffffffff168373ffffffffffffffffffffffffffffffffffffffff1603611ce357806040517f7e273289000000000000000000000000000000000000000000000000000000008152600401611cda91906124d2565b60405180910390fd5b81816040517f177e802f000000000000000000000000000000000000000000000000000000008152600401611d19929190612fcc565b60405180910390fd5b505050565b606060006001611d3684611eda565b01905060008167ffffffffffffffff811115611d5557611d546125a3565b5b6040519080825280601f01601f191660200182016040528015611d875781602001600182028036833780820191505090505b509050600082602001820190505b600115611dea578080600190039150507f3031323334353637383961626364656600000000000000000000000000000000600a86061a8153600a8581611dde57611ddd612af1565b5b04945060008503611d95575b819350505050919050565b611dff838361202d565b611e14611e0a6110ef565b600085858561174c565b505050565b60008073ffffffffffffffffffffffffffffffffffffffff168373ffffffffffffffffffffffffffffffffffffffff1614158015611ed157508273ffffffffffffffffffffffffffffffffffffffff168473ffffffffffffffffffffffffffffffffffffffff161480611e925750611e918484610e2e565b5b80611ed057508273ffffffffffffffffffffffffffffffffffffffff16611eb8836110b2565b73ffffffffffffffffffffffffffffffffffffffff16145b5b90509392505050565b600080600090507a184f03e93ff9f4daa797ed6e38ed64bf6a1f0100000000000000008310611f38577a184f03e93ff9f4daa797ed6e38ed64bf6a1f0100000000000000008381611f2e57611f2d612af1565b5b0492506040810190505b6d04ee2d6d415b85acef81000000008310611f75576d04ee2d6d415b85acef81000000008381611f6b57611f6a612af1565b5b0492506020810190505b662386f26fc100008310611fa457662386f26fc100008381611f9a57611f99612af1565b5b0492506010810190505b6305f5e1008310611fcd576305f5e1008381611fc357611fc2612af1565b5b0492506008810190505b6127108310611ff2576127108381611fe857611fe7612af1565b5b0492506004810190505b60648310612015576064838161200b5761200a612af1565b5b0492506002810190505b600a8310612024576001810190505b80915050919050565b600073ffffffffffffffffffffffffffffffffffffffff168273ffffffffffffffffffffffffffffffffffffffff160361209f5760006040517f64a0ae92000000000000000000000000000000000000000000000000000000008152600401612096919061234b565b60405180910390fd5b60006120ad83836000611109565b9050600073ffffffffffffffffffffffffffffffffffffffff168173ffffffffffffffffffffffffffffffffffffffff16146121215760006040517f73c6ac6e000000000000000000000000000000000000000000000000000000008152600401612118919061234b565b60405180910390fd5b505050565b6000604051905090565b600080fd5b600080fd5b60007fffffffff0000000000000000000000000000000000000000000000000000000082169050919050565b61216f8161213a565b811461217a57600080fd5b50565b60008135905061218c81612166565b92915050565b6000602082840312156121a8576121a7612130565b5b60006121b68482850161217d565b91505092915050565b60008115159050919050565b6121d4816121bf565b82525050565b60006020820190506121ef60008301846121cb565b92915050565b600081519050919050565b600082825260208201905092915050565b60005b8381101561222f578082015181840152602081019050612214565b60008484015250505050565b6000601f19601f8301169050919050565b6000612257826121f5565b6122618185612200565b9350612271818560208601612211565b61227a8161223b565b840191505092915050565b6000602082019050818103600083015261229f818461224c565b905092915050565b6000819050919050565b6122ba816122a7565b81146122c557600080fd5b50565b6000813590506122d7816122b1565b92915050565b6000602082840312156122f3576122f2612130565b5b6000612301848285016122c8565b91505092915050565b600073ffffffffffffffffffffffffffffffffffffffff82169050919050565b60006123358261230a565b9050919050565b6123458161232a565b82525050565b6000602082019050612360600083018461233c565b92915050565b61236f8161232a565b811461237a57600080fd5b50565b60008135905061238c81612366565b92915050565b600080604083850312156123a9576123a8612130565b5b60006123b78582860161237d565b92505060206123c8858286016122c8565b9150509250929050565b6000806000606084860312156123eb576123ea612130565b5b60006123f98682870161237d565b935050602061240a8682870161237d565b925050604061241b868287016122c8565b9150509250925092565b60006bffffffffffffffffffffffff82169050919050565b61244681612425565b811461245157600080fd5b50565b6000813590506124638161243d565b92915050565b60006020828403121561247f5761247e612130565b5b600061248d84828501612454565b91505092915050565b6000602082840312156124ac576124ab612130565b5b60006124ba8482850161237d565b91505092915050565b6124cc816122a7565b82525050565b60006020820190506124e760008301846124c3565b92915050565b6000806040838503121561250457612503612130565b5b6000612512858286016122c8565b92505060206125238582860161237d565b9150509250929050565b612536816121bf565b811461254157600080fd5b50565b6000813590506125538161252d565b92915050565b600080604083850312156125705761256f612130565b5b600061257e8582860161237d565b925050602061258f85828601612544565b9150509250929050565b600080fd5b600080fd5b7f4e487b7100000000000000000000000000000000000000000000000000000000600052604160045260246000fd5b6125db8261223b565b810181811067ffffffffffffffff821117156125fa576125f96125a3565b5b80604052505050565b600061260d612126565b905061261982826125d2565b919050565b600067ffffffffffffffff821115612639576126386125a3565b5b6126428261223b565b9050602081019050919050565b82818337600083830152505050565b600061267161266c8461261e565b612603565b90508281526020810184848401111561268d5761268c61259e565b5b61269884828561264f565b509392505050565b600082601f8301126126b5576126b4612599565b5b81356126c584826020860161265e565b91505092915050565b600080600080608085870312156126e8576126e7612130565b5b60006126f68782880161237d565b94505060206127078782880161237d565b9350506040612718878288016122c8565b925050606085013567ffffffffffffffff81111561273957612738612135565b5b612745878288016126a0565b91505092959194509250565b61275a81612425565b82525050565b60006020820190506127756000830184612751565b92915050565b600067ffffffffffffffff821115612796576127956125a3565b5b61279f8261223b565b9050602081019050919050565b60006127bf6127ba8461277b565b612603565b9050828152602081018484840111156127db576127da61259e565b5b6127e684828561264f565b509392505050565b600082601f83011261280357612802612599565b5b81356128138482602086016127ac565b91505092915050565b60006020828403121561283257612831612130565b5b600082013567ffffffffffffffff8111156128505761284f612135565b5b61285c848285016127ee565b91505092915050565b6000806040838503121561287c5761287b612130565b5b600061288a8582860161237d565b925050602061289b8582860161237d565b9150509250929050565b7f4e487b7100000000000000000000000000000000000000000000000000000000600052602260045260246000fd5b600060028204905060018216806128ec57607f821691505b6020821081036128ff576128fe6128a5565b5b50919050565b600060608201905061291a600083018661233c565b61292760208301856124c3565b612934604083018461233c565b949350505050565b7f596f7520617265206e6f7420746865206f776e65720000000000000000000000600082015250565b6000612972601583612200565b915061297d8261293c565b602082019050919050565b600060208201905081810360008301526129a181612965565b9050919050565b7f496e76616c696420627579657200000000000000000000000000000000000000600082015250565b60006129de600d83612200565b91506129e9826129a8565b602082019050919050565b60006020820190508181036000830152612a0d816129d1565b9050919050565b7f4e6f207061796d656e742073656e740000000000000000000000000000000000600082015250565b6000612a4a600f83612200565b9150612a5582612a14565b602082019050919050565b60006020820190508181036000830152612a7981612a3d565b9050919050565b7f4e487b7100000000000000000000000000000000000000000000000000000000600052601160045260246000fd5b6000612aba826122a7565b9150612ac5836122a7565b9250828202612ad3816122a7565b91508282048414831517612aea57612ae9612a80565b5b5092915050565b7f4e487b7100000000000000000000000000000000000000000000000000000000600052601260045260246000fd5b6000612b2b826122a7565b9150612b36836122a7565b925082612b4657612b45612af1565b5b828204905092915050565b6000612b5c826122a7565b9150612b67836122a7565b9250828203905081811115612b7f57612b7e612a80565b5b92915050565b600081905092915050565b6000612b9b826121f5565b612ba58185612b85565b9350612bb5818560208601612211565b80840191505092915050565b6000612bcd8285612b90565b9150612bd98284612b90565b91508190509392505050565b6000612bf0826122a7565b91507fffffffffffffffffffffffffffffffffffffffffffffffffffffffffffffffff8203612c2257612c21612a80565b5b600182019050919050565b6000606082019050612c4260008301866124c3565b612c4f602083018561233c565b8181036040830152612c61818461224c565b9050949350505050565b600081519050919050565b600082825260208201905092915050565b6000612c9282612c6b565b612c9c8185612c76565b9350612cac818560208601612211565b612cb58161223b565b840191505092915050565b6000608082019050612cd5600083018761233c565b612ce2602083018661233c565b612cef60408301856124c3565b8181036060830152612d018184612c87565b905095945050505050565b600081519050612d1b81612166565b92915050565b600060208284031215612d3757612d36612130565b5b6000612d4584828501612d0c565b91505092915050565b60008190508160005260206000209050919050565b60006020601f8301049050919050565b600082821b905092915050565b600060088302612db07fffffffffffffffffffffffffffffffffffffffffffffffffffffffffffffffff82612d73565b612dba8683612d73565b95508019841693508086168417925050509392505050565b6000819050919050565b6000612df7612df2612ded846122a7565b612dd2565b6122a7565b9050919050565b6000819050919050565b612e1183612ddc565b612e25612e1d82612dfe565b848454612d80565b825550505050565b600090565b612e3a612e2d565b612e45818484612e08565b505050565b5b81811015612e6957612e5e600082612e32565b600181019050612e4b565b5050565b601f821115612eae57612e7f81612d4e565b612e8884612d63565b81016020851015612e97578190505b612eab612ea385612d63565b830182612e4a565b50505b505050565b600082821c905092915050565b6000612ed160001984600802612eb3565b1980831691505092915050565b6000612eea8383612ec0565b9150826002028217905092915050565b612f03826121f5565b67ffffffffffffffff811115612f1c57612f1b6125a3565b5b612f2682546128d4565b612f31828285612e6d565b600060209050601f831160018114612f645760008415612f52578287015190505b612f5c8582612ede565b865550612fc4565b601f198416612f7286612d4e565b60005b82811015612f9a57848901518255600182019150602085019450602081019050612f75565b86831015612fb75784890151612fb3601f891682612ec0565b8355505b6001600288020188555050505b505050505050565b6000604082019050612fe1600083018561233c565b612fee60208301846124c3565b939250505056fea2646970667358221220ffeff13f0616302844caae8201844158646b626eb8d5c1caaf1974703fd192dc64736f6c63430008140033",
  "linkReferences": {},
  "deployedLinkReferences": {}
}