{
  "_format": "hh-sol-artifact-1",
  "contractName": "AIGenNFT",
  "sourceName": "contracts/AIGenNFT.sol",
  "abi": [
    {
      "inputs": [
        {
          "internalType": "uint96",
          "name": "_royaltyFee",
          "type": "uint96"
        },
        {
          "internalType": "address",
          "name": "initialOwner",
          "type": "address"
        },
        {
          "internalType": "uint256",
          "name": "initialTokenId",
          "type": "uint256"
        }
      ],
      "stateMutability": "nonpayable",
      "type": "constructor"
    },
    {
      "inputs": [],
      "name": "ContractIsPaused",
      "type": "error"
    },
    {
      "inputs": [
        {
          "internalType": "address",
          "name": "sender",
          "type": "address"
        },
        {
          "internalType": "uint256",
          "name": "tokenId",
          "type": "uint256"
        },
        {
          "internalType": "address",
          "name": "owner",
          "type": "address"
        }
      ],
      "name": "ERC721IncorrectOwner",
      "type": "error"
    },
    {
      "inputs": [
        {
          "internalType": "address",
          "name": "operator",
          "type": "address"
        },
        {
          "internalType": "uint256",
          "name": "tokenId",
          "type": "uint256"
        }
      ],
      "name": "ERC721InsufficientApproval",
      "type": "error"
    },
    {
      "inputs": [
        {
          "internalType": "address",
          "name": "approver",
          "type": "address"
        }
      ],
      "name": "ERC721InvalidApprover",
      "type": "error"
    },
    {
      "inputs": [
        {
          "internalType": "address",
          "name": "operator",
          "type": "address"
        }
      ],
      "name": "ERC721InvalidOperator",
      "type": "error"
    },
    {
      "inputs": [
        {
          "internalType": "address",
          "name": "owner",
          "type": "address"
        }
      ],
      "name": "ERC721InvalidOwner",
      "type": "error"
    },
    {
      "inputs": [
        {
          "internalType": "address",
          "name": "receiver",
          "type": "address"
        }
      ],
      "name": "ERC721InvalidReceiver",
      "type": "error"
    },
    {
      "inputs": [
        {
          "internalType": "address",
          "name": "sender",
          "type": "address"
        }
      ],
      "name": "ERC721InvalidSender",
      "type": "error"
    },
    {
      "inputs": [
        {
          "internalType": "uint256",
          "name": "tokenId",
          "type": "uint256"
        }
      ],
      "name": "ERC721NonexistentToken",
      "type": "error"
    },
    {
      "inputs": [],
      "name": "EmptyTokenURI",
      "type": "error"
    },
    {
      "inputs": [],
      "name": "InsufficientPayment",
      "type": "error"
    },
    {
      "inputs": [],
      "name": "InvalidRoyaltyFee",
      "type": "error"
    },
    {
      "inputs": [],
      "name": "InvalidTokenId",
      "type": "error"
    },
    {
      "inputs": [],
      "name": "NotTokenOwner",
      "type": "error"
    },
    {
      "inputs": [
        {
          "internalType": "address",
          "name": "owner",
          "type": "address"
        }
      ],
      "name": "OwnableInvalidOwner",
      "type": "error"
    },
    {
      "inputs": [
        {
          "internalType": "address",
          "name": "account",
          "type": "address"
        }
      ],
      "name": "OwnableUnauthorizedAccount",
      "type": "error"
    },
    {
      "inputs": [],
      "name": "ReentrancyGuardReentrantCall",
      "type": "error"
    },
    {
      "inputs": [],
      "name": "ZeroAddress",
      "type": "error"
    },
    {
      "anonymous": false,
      "inputs": [
        {
          "indexed": true,
          "internalType": "address",
          "name": "owner",
          "type": "address"
        },
        {
          "indexed": true,
          "internalType": "address",
          "name": "approved",
          "type": "address"
        },
        {
          "indexed": true,
          "internalType": "uint256",
          "name": "tokenId",
          "type": "uint256"
        }
      ],
      "name": "Approval",
      "type": "event"
    },
    {
      "anonymous": false,
      "inputs": [
        {
          "indexed": true,
          "internalType": "address",
          "name": "owner",
          "type": "address"
        },
        {
          "indexed": true,
          "internalType": "address",
          "name": "operator",
          "type": "address"
        },
        {
          "indexed": false,
          "internalType": "bool",
          "name": "approved",
          "type": "bool"
        }
      ],
      "name": "ApprovalForAll",
      "type": "event"
    },
    {
      "anonymous": false,
      "inputs": [
        {
          "indexed": false,
          "internalType": "uint256",
          "name": "_fromTokenId",
          "type": "uint256"
        },
        {
          "indexed": false,
          "internalType": "uint256",
          "name": "_toTokenId",
          "type": "uint256"
        }
      ],
      "name": "BatchMetadataUpdate",
      "type": "event"
    },
    {
      "anonymous": false,
      "inputs": [
        {
          "indexed": true,
          "internalType": "address",
          "name": "owner",
          "type": "address"
        }
      ],
      "name": "ContractPaused",
      "type": "event"
    },
    {
      "anonymous": false,
      "inputs": [
        {
          "indexed": true,
          "internalType": "address",
          "name": "owner",
          "type": "address"
        }
      ],
      "name": "ContractUnpaused",
      "type": "event"
    },
    {
      "anonymous": false,
      "inputs": [
        {
          "indexed": false,
          "internalType": "uint256",
          "name": "_tokenId",
          "type": "uint256"
        }
      ],
      "name": "MetadataUpdate",
      "type": "event"
    },
    {
      "anonymous": false,
      "inputs": [
        {
          "indexed": true,
          "internalType": "uint256",
          "name": "tokenId",
          "type": "uint256"
        },
        {
          "indexed": true,
          "internalType": "address",
          "name": "creator",
          "type": "address"
        },
        {
          "indexed": false,
          "internalType": "string",
          "name": "tokenURI",
          "type": "string"
        },
        {
          "indexed": false,
          "internalType": "uint256",
          "name": "timestamp",
          "type": "uint256"
        },
        {
          "indexed": false,
          "internalType": "bytes32",
          "name": "mintTxHash",
          "type": "bytes32"
        }
      ],
      "name": "Minted",
      "type": "event"
    },
    {
      "anonymous": false,
      "inputs": [
        {
          "indexed": false,
          "internalType": "uint256",
          "name": "newNextTokenId",
          "type": "uint256"
        }
      ],
      "name": "NextTokenIdUpdated",
      "type": "event"
    },
    {
      "anonymous": false,
      "inputs": [
        {
          "indexed": true,
          "internalType": "address",
          "name": "previousOwner",
          "type": "address"
        },
        {
          "indexed": true,
          "internalType": "address",
          "name": "newOwner",
          "type": "address"
        }
      ],
      "name": "OwnershipTransferred",
      "type": "event"
    },
    {
      "anonymous": false,
      "inputs": [
        {
          "indexed": true,
          "internalType": "uint256",
          "name": "tokenId",
          "type": "uint256"
        },
        {
          "indexed": false,
          "internalType": "string",
          "name": "prompt",
          "type": "string"
        }
      ],
      "name": "PromptUpdated",
      "type": "event"
    },
    {
      "anonymous": false,
      "inputs": [
        {
          "indexed": true,
          "internalType": "uint256",
          "name": "tokenId",
          "type": "uint256"
        },
        {
          "indexed": true,
          "internalType": "address",
          "name": "seller",
          "type": "address"
        },
        {
          "indexed": true,
          "internalType": "address",
          "name": "buyer",
          "type": "address"
        },
        {
          "indexed": false,
          "internalType": "uint256",
          "name": "price",
          "type": "uint256"
        },
        {
          "indexed": false,
          "internalType": "uint256",
          "name": "royalty",
          "type": "uint256"
        }
      ],
      "name": "Resold",
      "type": "event"
    },
    {
      "anonymous": false,
      "inputs": [
        {
          "indexed": false,
          "internalType": "uint96",
          "name": "oldFee",
          "type": "uint96"
        },
        {
          "indexed": false,
          "internalType": "uint96",
          "name": "newFee",
          "type": "uint96"
        }
      ],
      "name": "RoyaltyFeeUpdated",
      "type": "event"
    },
    {
      "anonymous": false,
      "inputs": [
        {
          "indexed": true,
          "internalType": "address",
          "name": "from",
          "type": "address"
        },
        {
          "indexed": true,
          "internalType": "address",
          "name": "to",
          "type": "address"
        },
        {
          "indexed": true,
          "internalType": "uint256",
          "name": "tokenId",
          "type": "uint256"
        }
      ],
      "name": "Transfer",
      "type": "event"
    },
    {
      "inputs": [],
      "name": "MAX_ROYALTY_FEE",
      "outputs": [
        {
          "internalType": "uint256",
          "name": "",
          "type": "uint256"
        }
      ],
      "stateMutability": "view",
      "type": "function"
    },
    {
      "inputs": [
        {
          "internalType": "address",
          "name": "to",
          "type": "address"
        },
        {
          "internalType": "uint256",
          "name": "tokenId",
          "type": "uint256"
        }
      ],
      "name": "approve",
      "outputs": [],
      "stateMutability": "nonpayable",
      "type": "function"
    },
    {
      "inputs": [
        {
          "internalType": "address",
          "name": "owner",
          "type": "address"
        }
      ],
      "name": "balanceOf",
      "outputs": [
        {
          "internalType": "uint256",
          "name": "",
          "type": "uint256"
        }
      ],
      "stateMutability": "view",
      "type": "function"
    },
    {
      "inputs": [
        {
          "internalType": "uint256",
          "name": "",
          "type": "uint256"
        }
      ],
      "name": "creators",
      "outputs": [
        {
          "internalType": "address",
          "name": "",
          "type": "address"
        }
      ],
      "stateMutability": "view",
      "type": "function"
    },
    {
      "inputs": [
        {
          "internalType": "uint256",
          "name": "tokenId",
          "type": "uint256"
        }
      ],
      "name": "getApproved",
      "outputs": [
        {
          "internalType": "address",
          "name": "",
          "type": "address"
        }
      ],
      "stateMutability": "view",
      "type": "function"
    },
    {
      "inputs": [
        {
          "internalType": "uint256",
          "name": "tokenId",
          "type": "uint256"
        }
      ],
      "name": "getTokenInfo",
      "outputs": [
        {
          "internalType": "address",
          "name": "owner",
          "type": "address"
        },
        {
          "internalType": "address",
          "name": "creator",
          "type": "address"
        },
        {
          "internalType": "string",
          "name": "tokenURI",
          "type": "string"
        },
        {
          "internalType": "string",
          "name": "prompt",
          "type": "string"
        },
        {
          "internalType": "uint256",
          "name": "mintTimestamp",
          "type": "uint256"
        }
      ],
      "stateMutability": "view",
      "type": "function"
    },
    {
      "inputs": [
        {
          "internalType": "address",
          "name": "owner",
          "type": "address"
        },
        {
          "internalType": "address",
          "name": "operator",
          "type": "address"
        }
      ],
      "name": "isApprovedForAll",
      "outputs": [
        {
          "internalType": "bool",
          "name": "",
          "type": "bool"
        }
      ],
      "stateMutability": "view",
      "type": "function"
    },
    {
      "inputs": [
        {
          "internalType": "string",
          "name": "_tokenURI",
          "type": "string"
        }
      ],
      "name": "mint",
      "outputs": [
        {
          "internalType": "uint256",
          "name": "",
          "type": "uint256"
        }
      ],
      "stateMutability": "nonpayable",
      "type": "function"
    },
    {
      "inputs": [],
      "name": "name",
      "outputs": [
        {
          "internalType": "string",
          "name": "",
          "type": "string"
        }
      ],
      "stateMutability": "view",
      "type": "function"
    },
    {
      "inputs": [],
      "name": "nextTokenId",
      "outputs": [
        {
          "internalType": "uint256",
          "name": "",
          "type": "uint256"
        }
      ],
      "stateMutability": "view",
      "type": "function"
    },
    {
      "inputs": [],
      "name": "owner",
      "outputs": [
        {
          "internalType": "address",
          "name": "",
          "type": "address"
        }
      ],
      "stateMutability": "view",
      "type": "function"
    },
    {
      "inputs": [
        {
          "internalType": "uint256",
          "name": "tokenId",
          "type": "uint256"
        }
      ],
      "name": "ownerOf",
      "outputs": [
        {
          "internalType": "address",
          "name": "",
          "type": "address"
        }
      ],
      "stateMutability": "view",
      "type": "function"
    },
    {
      "inputs": [],
      "name": "pause",
      "outputs": [],
      "stateMutability": "nonpayable",
      "type": "function"
    },
    {
      "inputs": [],
      "name": "paused",
      "outputs": [
        {
          "internalType": "bool",
          "name": "",
          "type": "bool"
        }
      ],
      "stateMutability": "view",
      "type": "function"
    },
    {
      "inputs": [
        {
          "internalType": "uint256",
          "name": "",
          "type": "uint256"
        }
      ],
      "name": "prompts",
      "outputs": [
        {
          "internalType": "string",
          "name": "",
          "type": "string"
        }
      ],
      "stateMutability": "view",
      "type": "function"
    },
    {
      "inputs": [],
      "name": "renounceOwnership",
      "outputs": [],
      "stateMutability": "nonpayable",
      "type": "function"
    },
    {
      "inputs": [
        {
          "internalType": "uint256",
          "name": "tokenId",
          "type": "uint256"
        },
        {
          "internalType": "address",
          "name": "buyer",
          "type": "address"
        },
        {
          "internalType": "uint256",
          "name": "minSalePrice",
          "type": "uint256"
        }
      ],
      "name": "resale",
      "outputs": [],
      "stateMutability": "payable",
      "type": "function"
    },
    {
      "inputs": [],
      "name": "royaltyFee",
      "outputs": [
        {
          "internalType": "uint96",
          "name": "",
          "type": "uint96"
        }
      ],
      "stateMutability": "view",
      "type": "function"
    },
    {
      "inputs": [
        {
          "internalType": "uint256",
          "name": "tokenId",
          "type": "uint256"
        },
        {
          "internalType": "uint256",
          "name": "salePrice",
          "type": "uint256"
        }
      ],
      "name": "royaltyInfo",
      "outputs": [
        {
          "internalType": "address",
          "name": "receiver",
          "type": "address"
        },
        {
          "internalType": "uint256",
          "name": "royaltyAmount",
          "type": "uint256"
        }
      ],
      "stateMutability": "view",
      "type": "function"
    },
    {
      "inputs": [
        {
          "internalType": "address",
          "name": "from",
          "type": "address"
        },
        {
          "internalType": "address",
          "name": "to",
          "type": "address"
        },
        {
          "internalType": "uint256",
          "name": "tokenId",
          "type": "uint256"
        }
      ],
      "name": "safeTransferFrom",
      "outputs": [],
      "stateMutability": "nonpayable",
      "type": "function"
    },
    {
      "inputs": [
        {
          "internalType": "address",
          "name": "from",
          "type": "address"
        },
        {
          "internalType": "address",
          "name": "to",
          "type": "address"
        },
        {
          "internalType": "uint256",
          "name": "tokenId",
          "type": "uint256"
        },
        {
          "internalType": "bytes",
          "name": "data",
          "type": "bytes"
        }
      ],
      "name": "safeTransferFrom",
      "outputs": [],
      "stateMutability": "nonpayable",
      "type": "function"
    },
    {
      "inputs": [
        {
          "internalType": "address",
          "name": "operator",
          "type": "address"
        },
        {
          "internalType": "bool",
          "name": "approved",
          "type": "bool"
        }
      ],
      "name": "setApprovalForAll",
      "outputs": [],
      "stateMutability": "nonpayable",
      "type": "function"
    },
    {
      "inputs": [
        {
          "internalType": "uint256",
          "name": "_nextTokenId",
          "type": "uint256"
        }
      ],
      "name": "setNextTokenId",
      "outputs": [],
      "stateMutability": "nonpayable",
      "type": "function"
    },
    {
      "inputs": [
        {
          "internalType": "uint256",
          "name": "tokenId",
          "type": "uint256"
        },
        {
          "internalType": "string",
          "name": "_prompt",
          "type": "string"
        }
      ],
      "name": "setPrompt",
      "outputs": [],
      "stateMutability": "nonpayable",
      "type": "function"
    },
    {
      "inputs": [
        {
          "internalType": "uint96",
          "name": "_fee",
          "type": "uint96"
        }
      ],
      "name": "setRoyaltyFee",
      "outputs": [],
      "stateMutability": "nonpayable",
      "type": "function"
    },
    {
      "inputs": [
        {
          "internalType": "bytes4",
          "name": "interfaceId",
          "type": "bytes4"
        }
      ],
      "name": "supportsInterface",
      "outputs": [
        {
          "internalType": "bool",
          "name": "",
          "type": "bool"
        }
      ],
      "stateMutability": "view",
      "type": "function"
    },
    {
      "inputs": [],
      "name": "symbol",
      "outputs": [
        {
          "internalType": "string",
          "name": "",
          "type": "string"
        }
      ],
      "stateMutability": "view",
      "type": "function"
    },
    {
      "inputs": [
        {
          "internalType": "uint256",
          "name": "",
          "type": "uint256"
        }
      ],
      "name": "tokenMintTimestamps",
      "outputs": [
        {
          "internalType": "uint256",
          "name": "",
          "type": "uint256"
        }
      ],
      "stateMutability": "view",
      "type": "function"
    },
    {
      "inputs": [
        {
          "internalType": "uint256",
          "name": "tokenId",
          "type": "uint256"
        }
      ],
      "name": "tokenURI",
      "outputs": [
        {
          "internalType": "string",
          "name": "",
          "type": "string"
        }
      ],
      "stateMutability": "view",
      "type": "function"
    },
    {
      "inputs": [
        {
          "internalType": "address",
          "name": "from",
          "type": "address"
        },
        {
          "internalType": "address",
          "name": "to",
          "type": "address"
        },
        {
          "internalType": "uint256",
          "name": "tokenId",
          "type": "uint256"
        }
      ],
      "name": "transferFrom",
      "outputs": [],
      "stateMutability": "nonpayable",
      "type": "function"
    },
    {
      "inputs": [
        {
          "internalType": "address",
          "name": "newOwner",
          "type": "address"
        }
      ],
      "name": "transferOwnership",
      "outputs": [],
      "stateMutability": "nonpayable",
      "type": "function"
    },
    {
      "inputs": [],
      "name": "unpause",
      "outputs": [],
      "stateMutability": "nonpayable",
      "type": "function"
    }
  ],
  "bytecode": "0x60806040523480156200001157600080fd5b5060405162004522380380620045228339818101604052810190620000379190620003b4565b816040518060400160405280600c81526020017f414920496d616765204e465400000000000000000000000000000000000000008152506040518060400160405280600581526020017f41494e46540000000000000000000000000000000000000000000000000000008152508160009081620000b5919062000680565b508060019081620000c7919062000680565b505050600073ffffffffffffffffffffffffffffffffffffffff168173ffffffffffffffffffffffffffffffffffffffff16036200013f5760006040517f1e4fbdf700000000000000000000000000000000000000000000000000000000815260040162000136919062000778565b60405180910390fd5b62000150816200020060201b60201c565b5060016008819055506103e8836bffffffffffffffffffffffff161115620001a4576040517f43d1481c00000000000000000000000000000000000000000000000000000000815260040160405180910390fd5b82600b60006101000a8154816bffffffffffffffffffffffff02191690836bffffffffffffffffffffffff1602179055506000600f60006101000a81548160ff0219169083151502179055508060098190555050505062000795565b6000600760009054906101000a900473ffffffffffffffffffffffffffffffffffffffff16905081600760006101000a81548173ffffffffffffffffffffffffffffffffffffffff021916908373ffffffffffffffffffffffffffffffffffffffff1602179055508173ffffffffffffffffffffffffffffffffffffffff168173ffffffffffffffffffffffffffffffffffffffff167f8be0079c531659141344cd1fd0a4f28419497f9722a3daafe3b4186f6b6457e060405160405180910390a35050565b600080fd5b60006bffffffffffffffffffffffff82169050919050565b620002ee81620002cb565b8114620002fa57600080fd5b50565b6000815190506200030e81620002e3565b92915050565b600073ffffffffffffffffffffffffffffffffffffffff82169050919050565b6000620003418262000314565b9050919050565b620003538162000334565b81146200035f57600080fd5b50565b600081519050620003738162000348565b92915050565b6000819050919050565b6200038e8162000379565b81146200039a57600080fd5b50565b600081519050620003ae8162000383565b92915050565b600080600060608486031215620003d057620003cf620002c6565b5b6000620003e086828701620002fd565b9350506020620003f38682870162000362565b925050604062000406868287016200039d565b9150509250925092565b600081519050919050565b7f4e487b7100000000000000000000000000000000000000000000000000000000600052604160045260246000fd5b7f4e487b7100000000000000000000000000000000000000000000000000000000600052602260045260246000fd5b600060028204905060018216806200049257607f821691505b602082108103620004a857620004a76200044a565b5b50919050565b60008190508160005260206000209050919050565b60006020601f8301049050919050565b600082821b905092915050565b600060088302620005127fffffffffffffffffffffffffffffffffffffffffffffffffffffffffffffffff82620004d3565b6200051e8683620004d3565b95508019841693508086168417925050509392505050565b6000819050919050565b6000620005616200055b620005558462000379565b62000536565b62000379565b9050919050565b6000819050919050565b6200057d8362000540565b620005956200058c8262000568565b848454620004e0565b825550505050565b600090565b620005ac6200059d565b620005b981848462000572565b505050565b5b81811015620005e157620005d5600082620005a2565b600181019050620005bf565b5050565b601f8211156200063057620005fa81620004ae565b6200060584620004c3565b8101602085101562000615578190505b6200062d6200062485620004c3565b830182620005be565b50505b505050565b600082821c905092915050565b6000620006556000198460080262000635565b1980831691505092915050565b600062000670838362000642565b9150826002028217905092915050565b6200068b8262000410565b67ffffffffffffffff811115620006a757620006a66200041b565b5b620006b3825462000479565b620006c0828285620005e5565b600060209050601f831160018114620006f85760008415620006e3578287015190505b620006ef858262000662565b8655506200075f565b601f1984166200070886620004ae565b60005b8281101562000732578489015182556001820191506020850194506020810190506200070b565b868310156200075257848901516200074e601f89168262000642565b8355505b6001600288020188555050505b505050505050565b620007728162000334565b82525050565b60006020820190506200078f600083018462000767565b92915050565b613d7d80620007a56000396000f3fe6080604052600436106101e35760003560e01c806383e3500f11610102578063b8997a9711610095578063d85d3d2711610064578063d85d3d27146106fc578063e985e9c514610739578063f2fde38b14610776578063f7f7a5a71461079f576101e3565b8063b8997a971461061a578063c87b56dd14610645578063cd53d08e14610682578063d4cf9af7146106bf576101e3565b806395d89b41116100d157806395d89b4114610560578063a22cb4651461058b578063ad049341146105b4578063b88d4fde146105f1576101e3565b806383e3500f146104b45780638456cb59146104dd5780638c7a63ae146104f45780638da5cb5b14610535576101e3565b80633f4ba83a1161017a5780636352211e116101495780636352211e146103f857806370a0823114610435578063715018a61461047257806375794a3c14610489576101e3565b80633f4ba83a1461037157806342842e0e1461038857806346af4996146103b15780635c975abb146103cd576101e3565b806317e1f82e116101b657806317e1f82e146102b657806323b872dd146102e15780632a55205a1461030a57806331faafb414610348576101e3565b806301ffc9a7146101e857806306fdde0314610225578063081812fc14610250578063095ea7b31461028d575b600080fd5b3480156101f457600080fd5b5061020f600480360381019061020a9190612de6565b6107c8565b60405161021c9190612e2e565b60405180910390f35b34801561023157600080fd5b5061023a610842565b6040516102479190612ed9565b60405180910390f35b34801561025c57600080fd5b5061027760048036038101906102729190612f31565b6108d4565b6040516102849190612f9f565b60405180910390f35b34801561029957600080fd5b506102b460048036038101906102af9190612fe6565b6108f0565b005b3480156102c257600080fd5b506102cb610906565b6040516102d89190613035565b60405180910390f35b3480156102ed57600080fd5b5061030860048036038101906103039190613050565b61090c565b005b34801561031657600080fd5b50610331600480360381019061032c91906130a3565b610a0e565b60405161033f9291906130e3565b60405180910390f35b34801561035457600080fd5b5061036f600480360381019061036a9190613150565b610b0b565b005b34801561037d57600080fd5b50610386610be4565b005b34801561039457600080fd5b506103af60048036038101906103aa9190613050565b610c4c565b005b6103cb60048036038101906103c6919061317d565b610c6c565b005b3480156103d957600080fd5b506103e261104a565b6040516103ef9190612e2e565b60405180910390f35b34801561040457600080fd5b5061041f600480360381019061041a9190612f31565b61105d565b60405161042c9190612f9f565b60405180910390f35b34801561044157600080fd5b5061045c600480360381019061045791906131d0565b61106f565b6040516104699190613035565b60405180910390f35b34801561047e57600080fd5b50610487611129565b005b34801561049557600080fd5b5061049e61113d565b6040516104ab9190613035565b60405180910390f35b3480156104c057600080fd5b506104db60048036038101906104d69190612f31565b611143565b005b3480156104e957600080fd5b506104f261118c565b005b34801561050057600080fd5b5061051b60048036038101906105169190612f31565b6111f4565b60405161052c9594939291906131fd565b60405180910390f35b34801561054157600080fd5b5061054a611375565b6040516105579190612f9f565b60405180910390f35b34801561056c57600080fd5b5061057561139f565b6040516105829190612ed9565b60405180910390f35b34801561059757600080fd5b506105b260048036038101906105ad919061328a565b611431565b005b3480156105c057600080fd5b506105db60048036038101906105d69190612f31565b611447565b6040516105e89190613035565b60405180910390f35b3480156105fd57600080fd5b50610618600480360381019061061391906133ff565b61145f565b005b34801561062657600080fd5b5061062f611484565b60405161063c9190613491565b60405180910390f35b34801561065157600080fd5b5061066c60048036038101906106679190612f31565b6114a2565b6040516106799190612ed9565b60405180910390f35b34801561068e57600080fd5b506106a960048036038101906106a49190612f31565b6115b5565b6040516106b69190612f9f565b60405180910390f35b3480156106cb57600080fd5b506106e660048036038101906106e19190612f31565b6115e8565b6040516106f39190612ed9565b60405180910390f35b34801561070857600080fd5b50610723600480360381019061071e919061354d565b611688565b6040516107309190613035565b60405180910390f35b34801561074557600080fd5b50610760600480360381019061075b9190613596565b611852565b60405161076d9190612e2e565b60405180910390f35b34801561078257600080fd5b5061079d600480360381019061079891906131d0565b6118e6565b005b3480156107ab57600080fd5b506107c660048036038101906107c191906135d6565b61196c565b005b60007f2a55205a000000000000000000000000000000000000000000000000000000007bffffffffffffffffffffffffffffffffffffffffffffffffffffffff1916827bffffffffffffffffffffffffffffffffffffffffffffffffffffffff1916148061083b575061083a82611aeb565b5b9050919050565b60606000805461085190613661565b80601f016020809104026020016040519081016040528092919081815260200182805461087d90613661565b80156108ca5780601f1061089f576101008083540402835291602001916108ca565b820191906000526020600020905b8154815290600101906020018083116108ad57829003601f168201915b5050505050905090565b60006108df82611b4c565b506108e982611bd4565b9050919050565b61090282826108fd611c11565b611c19565b5050565b6103e881565b600073ffffffffffffffffffffffffffffffffffffffff168273ffffffffffffffffffffffffffffffffffffffff160361097e5760006040517f64a0ae920000000000000000000000000000000000000000000000000000000081526004016109759190612f9f565b60405180910390fd5b6000610992838361098d611c11565b611c2b565b90508373ffffffffffffffffffffffffffffffffffffffff168173ffffffffffffffffffffffffffffffffffffffff1614610a08578382826040517f64283d7b0000000000000000000000000000000000000000000000000000000081526004016109ff93929190613692565b60405180910390fd5b50505050565b600080600073ffffffffffffffffffffffffffffffffffffffff16610a3285611e45565b73ffffffffffffffffffffffffffffffffffffffff1603610a7f576040517f3f6cc76800000000000000000000000000000000000000000000000000000000815260040160405180910390fd5b6000600a600086815260200190815260200160002060009054906101000a900473ffffffffffffffffffffffffffffffffffffffff1690506000612710600b60009054906101000a90046bffffffffffffffffffffffff166bffffffffffffffffffffffff1686610af091906136f8565b610afa9190613769565b905081819350935050509250929050565b610b13611e82565b6103e8816bffffffffffffffffffffffff161115610b5d576040517f43d1481c00000000000000000000000000000000000000000000000000000000815260040160405180910390fd5b7fc058f61a43faf19b8d74f113a521015600fc796f90c7b103f6681807e2a85e5f600b60009054906101000a90046bffffffffffffffffffffffff1682604051610ba892919061379a565b60405180910390a180600b60006101000a8154816bffffffffffffffffffffffff02191690836bffffffffffffffffffffffff16021790555050565b610bec611e82565b6000600f60006101000a81548160ff0219169083151502179055503373ffffffffffffffffffffffffffffffffffffffff167f5b65b0c1363b3003db9bcc5e1fd8805a6d6bf5bf6dc9d3431ee4494cd7d1176660405160405180910390a2565b610c678383836040518060200160405280600081525061145f565b505050565b600f60009054906101000a900460ff1615610cb3576040517f6d39fcd000000000000000000000000000000000000000000000000000000000815260040160405180910390fd5b610cbb611f09565b600073ffffffffffffffffffffffffffffffffffffffff16610cdc84611e45565b73ffffffffffffffffffffffffffffffffffffffff1603610d29576040517f3f6cc76800000000000000000000000000000000000000000000000000000000815260040160405180910390fd5b3373ffffffffffffffffffffffffffffffffffffffff16610d498461105d565b73ffffffffffffffffffffffffffffffffffffffff1614610d96576040517f59dc379f00000000000000000000000000000000000000000000000000000000815260040160405180910390fd5b600073ffffffffffffffffffffffffffffffffffffffff168273ffffffffffffffffffffffffffffffffffffffff1603610dfc576040517fd92e233d00000000000000000000000000000000000000000000000000000000815260040160405180910390fd5b80341015610e36576040517fcd1c886700000000000000000000000000000000000000000000000000000000815260040160405180910390fd5b60003390506000612710600b60009054906101000a90046bffffffffffffffffffffffff166bffffffffffffffffffffffff1634610e7491906136f8565b610e7e9190613769565b905060008134610e8e91906137c3565b9050600082118015610f005750600073ffffffffffffffffffffffffffffffffffffffff16600a600088815260200190815260200160002060009054906101000a900473ffffffffffffffffffffffffffffffffffffffff1673ffffffffffffffffffffffffffffffffffffffff1614155b15610f8057600a600087815260200190815260200160002060009054906101000a900473ffffffffffffffffffffffffffffffffffffffff1673ffffffffffffffffffffffffffffffffffffffff166108fc839081150290604051600060405180830381858888f19350505050158015610f7e573d6000803e3d6000fd5b505b8273ffffffffffffffffffffffffffffffffffffffff166108fc829081150290604051600060405180830381858888f19350505050158015610fc6573d6000803e3d6000fd5b50610fd2838688611f4f565b8473ffffffffffffffffffffffffffffffffffffffff168373ffffffffffffffffffffffffffffffffffffffff16877f8bcc513975cb7f466722322205d91586be7f09b0bdadb67c7252f83270d7597b34866040516110329291906137f7565b60405180910390a45050506110456120bc565b505050565b600f60009054906101000a900460ff1681565b600061106882611b4c565b9050919050565b60008073ffffffffffffffffffffffffffffffffffffffff168273ffffffffffffffffffffffffffffffffffffffff16036110e25760006040517f89c62b640000000000000000000000000000000000000000000000000000000081526004016110d99190612f9f565b60405180910390fd5b600360008373ffffffffffffffffffffffffffffffffffffffff1673ffffffffffffffffffffffffffffffffffffffff168152602001908152602001600020549050919050565b611131611e82565b61113b60006120c6565b565b60095481565b61114b611e82565b806009819055507f7a5dbf613a2a876f3403c3fb551a99dbc03e1d416dc1a78b87797248cae8dbb7816040516111819190613035565b60405180910390a150565b611194611e82565b6001600f60006101000a81548160ff0219169083151502179055503373ffffffffffffffffffffffffffffffffffffffff167f81990fd9a5c552b8e3677917d8a03c07678f0d2cb68f88b634aca2022e9bd19f60405160405180910390a2565b60008060608060008073ffffffffffffffffffffffffffffffffffffffff1661121c87611e45565b73ffffffffffffffffffffffffffffffffffffffff1603611269576040517f3f6cc76800000000000000000000000000000000000000000000000000000000815260040160405180910390fd5b6112728661105d565b600a600088815260200190815260200160002060009054906101000a900473ffffffffffffffffffffffffffffffffffffffff166112af886114a2565b600e60008a8152602001908152602001600020600d60008b8152602001908152602001600020548180546112e290613661565b80601f016020809104026020016040519081016040528092919081815260200182805461130e90613661565b801561135b5780601f106113305761010080835404028352916020019161135b565b820191906000526020600020905b81548152906001019060200180831161133e57829003601f168201915b505050505091509450945094509450945091939590929450565b6000600760009054906101000a900473ffffffffffffffffffffffffffffffffffffffff16905090565b6060600180546113ae90613661565b80601f01602080910402602001604051908101604052809291908181526020018280546113da90613661565b80156114275780601f106113fc57610100808354040283529160200191611427565b820191906000526020600020905b81548152906001019060200180831161140a57829003601f168201915b5050505050905090565b61144361143c611c11565b838361218c565b5050565b600d6020528060005260406000206000915090505481565b61146a84848461090c565b61147e611475611c11565b858585856122fb565b50505050565b600b60009054906101000a90046bffffffffffffffffffffffff1681565b60606114ad82611b4c565b5060006006600084815260200190815260200160002080546114ce90613661565b80601f01602080910402602001604051908101604052809291908181526020018280546114fa90613661565b80156115475780601f1061151c57610100808354040283529160200191611547565b820191906000526020600020905b81548152906001019060200180831161152a57829003601f168201915b5050505050905060006115586124ac565b9050600081510361156d5781925050506115b0565b6000825111156115a257808260405160200161158a92919061385c565b604051602081830303815290604052925050506115b0565b6115ab846124c3565b925050505b919050565b600a6020528060005260406000206000915054906101000a900473ffffffffffffffffffffffffffffffffffffffff1681565b600e602052806000526040600020600091509050805461160790613661565b80601f016020809104026020016040519081016040528092919081815260200182805461163390613661565b80156116805780601f1061165557610100808354040283529160200191611680565b820191906000526020600020905b81548152906001019060200180831161166357829003601f168201915b505050505081565b6000600f60009054906101000a900460ff16156116d1576040517f6d39fcd000000000000000000000000000000000000000000000000000000000815260040160405180910390fd5b6116d9611f09565b6000825103611714576040517f17314b6100000000000000000000000000000000000000000000000000000000815260040160405180910390fd5b600060095490506009600081548092919061172e90613880565b919050555061173d338261252c565b611747818461254a565b33600a600083815260200190815260200160002060006101000a81548173ffffffffffffffffffffffffffffffffffffffff021916908373ffffffffffffffffffffffffffffffffffffffff16021790555042600d60008381526020019081526020016000208190555060006001436117c091906137c3565b4033836040516020016117d59392919061395c565b6040516020818303038152906040528051906020012090503373ffffffffffffffffffffffffffffffffffffffff16827f3458707363aa491691e8628e22c6bcc4ad3d8aac73de53df4f7c8018fa7d14b8864285604051611838939291906139a8565b60405180910390a3819250505061184d6120bc565b919050565b6000600560008473ffffffffffffffffffffffffffffffffffffffff1673ffffffffffffffffffffffffffffffffffffffff16815260200190815260200160002060008373ffffffffffffffffffffffffffffffffffffffff1673ffffffffffffffffffffffffffffffffffffffff16815260200190815260200160002060009054906101000a900460ff16905092915050565b6118ee611e82565b600073ffffffffffffffffffffffffffffffffffffffff168173ffffffffffffffffffffffffffffffffffffffff16036119605760006040517f1e4fbdf70000000000000000000000000000000000000000000000000000000081526004016119579190612f9f565b60405180910390fd5b611969816120c6565b50565b600f60009054906101000a900460ff16156119b3576040517f6d39fcd000000000000000000000000000000000000000000000000000000000815260040160405180910390fd5b600073ffffffffffffffffffffffffffffffffffffffff166119d483611e45565b73ffffffffffffffffffffffffffffffffffffffff1603611a21576040517f3f6cc76800000000000000000000000000000000000000000000000000000000815260040160405180910390fd5b3373ffffffffffffffffffffffffffffffffffffffff16611a418361105d565b73ffffffffffffffffffffffffffffffffffffffff1614611a8e576040517f59dc379f00000000000000000000000000000000000000000000000000000000815260040160405180910390fd5b80600e60008481526020019081526020016000209081611aae9190613b92565b50817f41d91ac39a40cafbc12625ecf6d7a13d849455d18166eaeaf60f8b99af741fed82604051611adf9190612ed9565b60405180910390a25050565b6000634906490660e01b7bffffffffffffffffffffffffffffffffffffffffffffffffffffffff1916827bffffffffffffffffffffffffffffffffffffffffffffffffffffffff19161480611b455750611b44826125a6565b5b9050919050565b600080611b5883611e45565b9050600073ffffffffffffffffffffffffffffffffffffffff168173ffffffffffffffffffffffffffffffffffffffff1603611bcb57826040517f7e273289000000000000000000000000000000000000000000000000000000008152600401611bc29190613035565b60405180910390fd5b80915050919050565b60006004600083815260200190815260200160002060009054906101000a900473ffffffffffffffffffffffffffffffffffffffff169050919050565b600033905090565b611c268383836001612688565b505050565b600080611c3784611e45565b9050600073ffffffffffffffffffffffffffffffffffffffff168373ffffffffffffffffffffffffffffffffffffffff1614611c7957611c7881848661284d565b5b600073ffffffffffffffffffffffffffffffffffffffff168173ffffffffffffffffffffffffffffffffffffffff1614611d0a57611cbb600085600080612688565b6001600360008373ffffffffffffffffffffffffffffffffffffffff1673ffffffffffffffffffffffffffffffffffffffff168152602001908152602001600020600082825403925050819055505b600073ffffffffffffffffffffffffffffffffffffffff168573ffffffffffffffffffffffffffffffffffffffff1614611d8d576001600360008773ffffffffffffffffffffffffffffffffffffffff1673ffffffffffffffffffffffffffffffffffffffff168152602001908152602001600020600082825401925050819055505b846002600086815260200190815260200160002060006101000a81548173ffffffffffffffffffffffffffffffffffffffff021916908373ffffffffffffffffffffffffffffffffffffffff160217905550838573ffffffffffffffffffffffffffffffffffffffff168273ffffffffffffffffffffffffffffffffffffffff167fddf252ad1be2c89b69c2b068fc378daa952ba7f163c4a11628f55a4df523b3ef60405160405180910390a4809150509392505050565b60006002600083815260200190815260200160002060009054906101000a900473ffffffffffffffffffffffffffffffffffffffff169050919050565b611e8a611c11565b73ffffffffffffffffffffffffffffffffffffffff16611ea8611375565b73ffffffffffffffffffffffffffffffffffffffff1614611f0757611ecb611c11565b6040517f118cdaa7000000000000000000000000000000000000000000000000000000008152600401611efe9190612f9f565b60405180910390fd5b565b600260085403611f45576040517f3ee5aeb500000000000000000000000000000000000000000000000000000000815260040160405180910390fd5b6002600881905550565b600073ffffffffffffffffffffffffffffffffffffffff168273ffffffffffffffffffffffffffffffffffffffff1603611fc15760006040517f64a0ae92000000000000000000000000000000000000000000000000000000008152600401611fb89190612f9f565b60405180910390fd5b6000611fcf83836000611c2b565b9050600073ffffffffffffffffffffffffffffffffffffffff168173ffffffffffffffffffffffffffffffffffffffff160361204257816040517f7e2732890000000000000000000000000000000000000000000000000000000081526004016120399190613035565b60405180910390fd5b8373ffffffffffffffffffffffffffffffffffffffff168173ffffffffffffffffffffffffffffffffffffffff16146120b6578382826040517f64283d7b0000000000000000000000000000000000000000000000000000000081526004016120ad93929190613692565b60405180910390fd5b50505050565b6001600881905550565b6000600760009054906101000a900473ffffffffffffffffffffffffffffffffffffffff16905081600760006101000a81548173ffffffffffffffffffffffffffffffffffffffff021916908373ffffffffffffffffffffffffffffffffffffffff1602179055508173ffffffffffffffffffffffffffffffffffffffff168173ffffffffffffffffffffffffffffffffffffffff167f8be0079c531659141344cd1fd0a4f28419497f9722a3daafe3b4186f6b6457e060405160405180910390a35050565b600073ffffffffffffffffffffffffffffffffffffffff168273ffffffffffffffffffffffffffffffffffffffff16036121fd57816040517f5b08ba180000000000000000000000000000000000000000000000000000000081526004016121f49190612f9f565b60405180910390fd5b80600560008573ffffffffffffffffffffffffffffffffffffffff1673ffffffffffffffffffffffffffffffffffffffff16815260200190815260200160002060008473ffffffffffffffffffffffffffffffffffffffff1673ffffffffffffffffffffffffffffffffffffffff16815260200190815260200160002060006101000a81548160ff0219169083151502179055508173ffffffffffffffffffffffffffffffffffffffff168373ffffffffffffffffffffffffffffffffffffffff167f17307eab39ab6107e8899845ad3d59bd9653f200f220920489ca2b5937696c31836040516122ee9190612e2e565b60405180910390a3505050565b60008373ffffffffffffffffffffffffffffffffffffffff163b11156124a5578273ffffffffffffffffffffffffffffffffffffffff1663150b7a02868685856040518563ffffffff1660e01b815260040161235a9493929190613cb9565b6020604051808303816000875af192505050801561239657506040513d601f19601f820116820180604052508101906123939190613d1a565b60015b61241a573d80600081146123c6576040519150601f19603f3d011682016040523d82523d6000602084013e6123cb565b606091505b50600081510361241257836040517f64a0ae920000000000000000000000000000000000000000000000000000000081526004016124099190612f9f565b60405180910390fd5b805181602001fd5b63150b7a0260e01b7bffffffffffffffffffffffffffffffffffffffffffffffffffffffff1916817bffffffffffffffffffffffffffffffffffffffffffffffffffffffff1916146124a357836040517f64a0ae9200000000000000000000000000000000000000000000000000000000815260040161249a9190612f9f565b60405180910390fd5b505b5050505050565b606060405180602001604052806000815250905090565b60606124ce82611b4c565b5060006124d96124ac565b905060008151116124f95760405180602001604052806000815250612524565b8061250384612911565b60405160200161251492919061385c565b6040516020818303038152906040525b915050919050565b6125468282604051806020016040528060008152506129df565b5050565b8060066000848152602001908152602001600020908161256a9190613b92565b507ff8e1a15aba9398e019f0b49df1a4fde98ee17ae345cb5f6b5e2c27f5033e8ce78260405161259a9190613035565b60405180910390a15050565b60007f80ac58cd000000000000000000000000000000000000000000000000000000007bffffffffffffffffffffffffffffffffffffffffffffffffffffffff1916827bffffffffffffffffffffffffffffffffffffffffffffffffffffffff1916148061267157507f5b5e139f000000000000000000000000000000000000000000000000000000007bffffffffffffffffffffffffffffffffffffffffffffffffffffffff1916827bffffffffffffffffffffffffffffffffffffffffffffffffffffffff1916145b80612681575061268082612a03565b5b9050919050565b80806126c15750600073ffffffffffffffffffffffffffffffffffffffff168273ffffffffffffffffffffffffffffffffffffffff1614155b156127f55760006126d184611b4c565b9050600073ffffffffffffffffffffffffffffffffffffffff168373ffffffffffffffffffffffffffffffffffffffff161415801561273c57508273ffffffffffffffffffffffffffffffffffffffff168173ffffffffffffffffffffffffffffffffffffffff1614155b801561274f575061274d8184611852565b155b1561279157826040517fa9fbf51f0000000000000000000000000000000000000000000000000000000081526004016127889190612f9f565b60405180910390fd5b81156127f357838573ffffffffffffffffffffffffffffffffffffffff168273ffffffffffffffffffffffffffffffffffffffff167f8c5be1e5ebec7d5bd14f71427d1e84f3dd0314c0f7b2291e5b200ac8c7c3b92560405160405180910390a45b505b836004600085815260200190815260200160002060006101000a81548173ffffffffffffffffffffffffffffffffffffffff021916908373ffffffffffffffffffffffffffffffffffffffff16021790555050505050565b612858838383612a6d565b61290c57600073ffffffffffffffffffffffffffffffffffffffff168373ffffffffffffffffffffffffffffffffffffffff16036128cd57806040517f7e2732890000000000000000000000000000000000000000000000000000000081526004016128c49190613035565b60405180910390fd5b81816040517f177e802f0000000000000000000000000000000000000000000000000000000081526004016129039291906130e3565b60405180910390fd5b505050565b60606000600161292084612b2e565b01905060008167ffffffffffffffff81111561293f5761293e6132d4565b5b6040519080825280601f01601f1916602001820160405280156129715781602001600182028036833780820191505090505b509050600082602001820190505b6001156129d4578080600190039150507f3031323334353637383961626364656600000000000000000000000000000000600a86061a8153600a85816129c8576129c761373a565b5b0494506000850361297f575b819350505050919050565b6129e98383612c81565b6129fe6129f4611c11565b60008585856122fb565b505050565b60007f01ffc9a7000000000000000000000000000000000000000000000000000000007bffffffffffffffffffffffffffffffffffffffffffffffffffffffff1916827bffffffffffffffffffffffffffffffffffffffffffffffffffffffff1916149050919050565b60008073ffffffffffffffffffffffffffffffffffffffff168373ffffffffffffffffffffffffffffffffffffffff1614158015612b2557508273ffffffffffffffffffffffffffffffffffffffff168473ffffffffffffffffffffffffffffffffffffffff161480612ae65750612ae58484611852565b5b80612b2457508273ffffffffffffffffffffffffffffffffffffffff16612b0c83611bd4565b73ffffffffffffffffffffffffffffffffffffffff16145b5b90509392505050565b600080600090507a184f03e93ff9f4daa797ed6e38ed64bf6a1f0100000000000000008310612b8c577a184f03e93ff9f4daa797ed6e38ed64bf6a1f0100000000000000008381612b8257612b8161373a565b5b0492506040810190505b6d04ee2d6d415b85acef81000000008310612bc9576d04ee2d6d415b85acef81000000008381612bbf57612bbe61373a565b5b0492506020810190505b662386f26fc100008310612bf857662386f26fc100008381612bee57612bed61373a565b5b0492506010810190505b6305f5e1008310612c21576305f5e1008381612c1757612c1661373a565b5b0492506008810190505b6127108310612c46576127108381612c3c57612c3b61373a565b5b0492506004810190505b60648310612c695760648381612c5f57612c5e61373a565b5b0492506002810190505b600a8310612c78576001810190505b80915050919050565b600073ffffffffffffffffffffffffffffffffffffffff168273ffffffffffffffffffffffffffffffffffffffff1603612cf35760006040517f64a0ae92000000000000000000000000000000000000000000000000000000008152600401612cea9190612f9f565b60405180910390fd5b6000612d0183836000611c2b565b9050600073ffffffffffffffffffffffffffffffffffffffff168173ffffffffffffffffffffffffffffffffffffffff1614612d755760006040517f73c6ac6e000000000000000000000000000000000000000000000000000000008152600401612d6c9190612f9f565b60405180910390fd5b505050565b6000604051905090565b600080fd5b600080fd5b60007fffffffff0000000000000000000000000000000000000000000000000000000082169050919050565b612dc381612d8e565b8114612dce57600080fd5b50565b600081359050612de081612dba565b92915050565b600060208284031215612dfc57612dfb612d84565b5b6000612e0a84828501612dd1565b91505092915050565b60008115159050919050565b612e2881612e13565b82525050565b6000602082019050612e436000830184612e1f565b92915050565b600081519050919050565b600082825260208201905092915050565b60005b83811015612e83578082015181840152602081019050612e68565b60008484015250505050565b6000601f19601f8301169050919050565b6000612eab82612e49565b612eb58185612e54565b9350612ec5818560208601612e65565b612ece81612e8f565b840191505092915050565b60006020820190508181036000830152612ef38184612ea0565b905092915050565b6000819050919050565b612f0e81612efb565b8114612f1957600080fd5b50565b600081359050612f2b81612f05565b92915050565b600060208284031215612f4757612f46612d84565b5b6000612f5584828501612f1c565b91505092915050565b600073ffffffffffffffffffffffffffffffffffffffff82169050919050565b6000612f8982612f5e565b9050919050565b612f9981612f7e565b82525050565b6000602082019050612fb46000830184612f90565b92915050565b612fc381612f7e565b8114612fce57600080fd5b50565b600081359050612fe081612fba565b92915050565b60008060408385031215612ffd57612ffc612d84565b5b600061300b85828601612fd1565b925050602061301c85828601612f1c565b9150509250929050565b61302f81612efb565b82525050565b600060208201905061304a6000830184613026565b92915050565b60008060006060848603121561306957613068612d84565b5b600061307786828701612fd1565b935050602061308886828701612fd1565b925050604061309986828701612f1c565b9150509250925092565b600080604083850312156130ba576130b9612d84565b5b60006130c885828601612f1c565b92505060206130d985828601612f1c565b9150509250929050565b60006040820190506130f86000830185612f90565b6131056020830184613026565b9392505050565b60006bffffffffffffffffffffffff82169050919050565b61312d8161310c565b811461313857600080fd5b50565b60008135905061314a81613124565b92915050565b60006020828403121561316657613165612d84565b5b60006131748482850161313b565b91505092915050565b60008060006060848603121561319657613195612d84565b5b60006131a486828701612f1c565b93505060206131b586828701612fd1565b92505060406131c686828701612f1c565b9150509250925092565b6000602082840312156131e6576131e5612d84565b5b60006131f484828501612fd1565b91505092915050565b600060a0820190506132126000830188612f90565b61321f6020830187612f90565b81810360408301526132318186612ea0565b905081810360608301526132458185612ea0565b90506132546080830184613026565b9695505050505050565b61326781612e13565b811461327257600080fd5b50565b6000813590506132848161325e565b92915050565b600080604083850312156132a1576132a0612d84565b5b60006132af85828601612fd1565b92505060206132c085828601613275565b9150509250929050565b600080fd5b600080fd5b7f4e487b7100000000000000000000000000000000000000000000000000000000600052604160045260246000fd5b61330c82612e8f565b810181811067ffffffffffffffff8211171561332b5761332a6132d4565b5b80604052505050565b600061333e612d7a565b905061334a8282613303565b919050565b600067ffffffffffffffff82111561336a576133696132d4565b5b61337382612e8f565b9050602081019050919050565b82818337600083830152505050565b60006133a261339d8461334f565b613334565b9050828152602081018484840111156133be576133bd6132cf565b5b6133c9848285613380565b509392505050565b600082601f8301126133e6576133e56132ca565b5b81356133f684826020860161338f565b91505092915050565b6000806000806080858703121561341957613418612d84565b5b600061342787828801612fd1565b945050602061343887828801612fd1565b935050604061344987828801612f1c565b925050606085013567ffffffffffffffff81111561346a57613469612d89565b5b613476878288016133d1565b91505092959194509250565b61348b8161310c565b82525050565b60006020820190506134a66000830184613482565b92915050565b600067ffffffffffffffff8211156134c7576134c66132d4565b5b6134d082612e8f565b9050602081019050919050565b60006134f06134eb846134ac565b613334565b90508281526020810184848401111561350c5761350b6132cf565b5b613517848285613380565b509392505050565b600082601f830112613534576135336132ca565b5b81356135448482602086016134dd565b91505092915050565b60006020828403121561356357613562612d84565b5b600082013567ffffffffffffffff81111561358157613580612d89565b5b61358d8482850161351f565b91505092915050565b600080604083850312156135ad576135ac612d84565b5b60006135bb85828601612fd1565b92505060206135cc85828601612fd1565b9150509250929050565b600080604083850312156135ed576135ec612d84565b5b60006135fb85828601612f1c565b925050602083013567ffffffffffffffff81111561361c5761361b612d89565b5b6136288582860161351f565b9150509250929050565b7f4e487b7100000000000000000000000000000000000000000000000000000000600052602260045260246000fd5b6000600282049050600182168061367957607f821691505b60208210810361368c5761368b613632565b5b50919050565b60006060820190506136a76000830186612f90565b6136b46020830185613026565b6136c16040830184612f90565b949350505050565b7f4e487b7100000000000000000000000000000000000000000000000000000000600052601160045260246000fd5b600061370382612efb565b915061370e83612efb565b925082820261371c81612efb565b91508282048414831517613733576137326136c9565b5b5092915050565b7f4e487b7100000000000000000000000000000000000000000000000000000000600052601260045260246000fd5b600061377482612efb565b915061377f83612efb565b92508261378f5761378e61373a565b5b828204905092915050565b60006040820190506137af6000830185613482565b6137bc6020830184613482565b9392505050565b60006137ce82612efb565b91506137d983612efb565b92508282039050818111156137f1576137f06136c9565b5b92915050565b600060408201905061380c6000830185613026565b6138196020830184613026565b9392505050565b600081905092915050565b600061383682612e49565b6138408185613820565b9350613850818560208601612e65565b80840191505092915050565b6000613868828561382b565b9150613874828461382b565b91508190509392505050565b600061388b82612efb565b91507fffffffffffffffffffffffffffffffffffffffffffffffffffffffffffffffff82036138bd576138bc6136c9565b5b600182019050919050565b6000819050919050565b6000819050919050565b6138ed6138e8826138c8565b6138d2565b82525050565b60008160601b9050919050565b600061390b826138f3565b9050919050565b600061391d82613900565b9050919050565b61393561393082612f7e565b613912565b82525050565b6000819050919050565b61395661395182612efb565b61393b565b82525050565b600061396882866138dc565b6020820191506139788285613924565b6014820191506139888284613945565b602082019150819050949350505050565b6139a2816138c8565b82525050565b600060608201905081810360008301526139c28186612ea0565b90506139d16020830185613026565b6139de6040830184613999565b949350505050565b60008190508160005260206000209050919050565b60006020601f8301049050919050565b600082821b905092915050565b600060088302613a487fffffffffffffffffffffffffffffffffffffffffffffffffffffffffffffffff82613a0b565b613a528683613a0b565b95508019841693508086168417925050509392505050565b6000819050919050565b6000613a8f613a8a613a8584612efb565b613a6a565b612efb565b9050919050565b6000819050919050565b613aa983613a74565b613abd613ab582613a96565b848454613a18565b825550505050565b600090565b613ad2613ac5565b613add818484613aa0565b505050565b5b81811015613b0157613af6600082613aca565b600181019050613ae3565b5050565b601f821115613b4657613b17816139e6565b613b20846139fb565b81016020851015613b2f578190505b613b43613b3b856139fb565b830182613ae2565b50505b505050565b600082821c905092915050565b6000613b6960001984600802613b4b565b1980831691505092915050565b6000613b828383613b58565b9150826002028217905092915050565b613b9b82612e49565b67ffffffffffffffff811115613bb457613bb36132d4565b5b613bbe8254613661565b613bc9828285613b05565b600060209050601f831160018114613bfc5760008415613bea578287015190505b613bf48582613b76565b865550613c5c565b601f198416613c0a866139e6565b60005b82811015613c3257848901518255600182019150602085019450602081019050613c0d565b86831015613c4f5784890151613c4b601f891682613b58565b8355505b6001600288020188555050505b505050505050565b600081519050919050565b600082825260208201905092915050565b6000613c8b82613c64565b613c958185613c6f565b9350613ca5818560208601612e65565b613cae81612e8f565b840191505092915050565b6000608082019050613cce6000830187612f90565b613cdb6020830186612f90565b613ce86040830185613026565b8181036060830152613cfa8184613c80565b905095945050505050565b600081519050613d1481612dba565b92915050565b600060208284031215613d3057613d2f612d84565b5b6000613d3e84828501613d05565b9150509291505056fea26469706673582212208d10f64353662000b2d397b7e12f229515a38a187881e73418ca78c553c5844c64736f6c63430008140033",
  "linkReferences": {},
  "deployedLinkReferences": {}
}